:100000000C94C2060C94E1060C94E1060C94E106F3
:100010000C94E1060C94E1060C94E1060C94E106C4
:100020000C94E1060C94E1060C94E1060C94E106B4
:100030000C94E1060C94E1060C94E3060C94E106A2
:100040000C94E1060C94E1060C949A070C946F074B
:100050000C949B200C943B190C94E1060C94E10643
:100060000C94E1060C94E1060C940B080C94E10648
:100070000C94E1060C94E1060C94E1060C94E10664
:100080000C94E1060C94E1060C94E1066A1A6D1AD0
:10009000701A731A761A791A7C1A7F1A821A851ABC
:1000A0000D375D375D375D375D3713372A375D377D
:1000B0005D375D3739375D375D375D375D375D37C4
:1000C0005D373F374E375B3700C0C101C30302C203
:1000D000C60607C705C5C404CC0C0DCD0FCFCE0E88
:1000E0000ACACB0BC90908C8D81819D91BDBDA1AF8
:1000F0001EDEDF1FDD1D1CDC14D4D515D71716D668
:10010000D21213D311D1D010F03031F133F3F232D7
:1001100036F6F737F53534F43CFCFD3DFF3F3EFE47
:10012000FA3A3BFB39F9F83828E8E929EB2B2AEAB7
:10013000EE2E2FEF2DEDEC2CE42425E527E7E62627
:1001400022E2E323E12120E0A06061A163A3A26297
:1001500066A6A767A56564A46CACAD6DAF6F6EAE07
:10016000AA6A6BAB69A9A86878B8B979BB7B7ABA77
:10017000BE7E7FBF7DBDBC7CB47475B577B7B676E7
:1001800072B2B373B17170B0509091519353529257
:1001900096565797559594549C5C5D9D5F9F9E5EC7
:1001A0005A9A9B5B99595898884849894B8B8A4A37
:1001B0004E8E8F4F8D4D4C8C4484854587474686A7
:1001C000824243834181804000C1814001C080411F
:1001D00001C0804100C1814001C0804100C1814017
:1001E00000C1814001C0804101C0804100C1814007
:1001F00000C1814001C0804100C1814001C08041F7
:1002000001C0804100C1814001C0804100C18140E6
:1002100000C1814001C0804100C1814001C08041D6
:1002200001C0804100C1814000C1814001C08041C6
:1002300001C0804100C1814001C0804100C18140B6
:1002400000C1814001C0804101C0804100C18140A6
:1002500000C1814001C0804100C1814001C0804196
:1002600001C0804100C1814000C1814001C0804186
:1002700001C0804100C1814001C0804100C1814076
:1002800000C1814001C0804100C1814001C0804166
:1002900001C0804100C1814001C0804100C1814056
:1002A00000C1814001C0804101C0804100C1814046
:1002B00000C1814001C0804100C1814001C0804136
:1002C00001C0804100C1814041A042A1E045A3A4FA
:1002D000A5A64BA74D484FA8504354A9AA58E1AB37
:1002E000ACE2D9AEC4AFB0B161B2B3B4E365B6B7F6
:1002F000B8B9BABBBCBD6FBE7063BF79E478E5C066
:10030000C1E6DAC3C4C5C6C700005EBCE2613FDD1A
:1003100083C29C7E20A3FD1F419DC3217FFCA24080
:100320001E5F01E3BD3E6082DC237D9FC1421CFE57
:10033000A0E1BF5D0380DE3C62BEE0025CDF816362
:100340003D7C22C09E1D43A1FF4618FAA427799B3D
:10035000C584DA3866E5BB5907DB856739BAE40638
:10036000581947A5FB7826C49A653BD987045AB823
:10037000E6A7F91B45C6987A24F8A6441A99C7251A
:100380007B3A6486D85B05E7B98CD2306EEDB35109
:100390000F4E10F2AC2F7193CD114FADF3702ECCE8
:1003A00092D38D6F31B2EC0E50AFF1134DCE9072EF
:1003B0002C6D33D18F0C52B0EE326C8ED0530DEFCA
:1003C000B1F0AE4C1291CF2D73CA947628ABF517CD
:1003D000490856B4EA6937D58B5709EBB536688AB0
:1003E000D495CB2977F4AA4816E9B7550B88D634AB
:1003F0006A2B7597C94A14F6A8742AC896154BA992
:10040000F7B6E80A54D7896B35D1D2C0CD3A31CC92
:10041000E0EBEE20E2EEE4FB20E8EDE4F32E00CD8D
:10042000E0E3F0E5E220202000C3EEF2EEE220203F
:10043000202000C7E0F0FFE42020202000CEF2EAD8
:10044000EBFEF7E5ED2000CFCFD73A007608636FDB
:100450006E76000078086469616700007A08706C45
:10046000737400007C087000000000007E08707348
:10047000000000008008666F750000008408666F49
:100480006D0000008608666F6E0000008808666FC9
:10049000780000008A08636F000000008E0869641D
:1004A00000000000900869647800000092086B6901
:1004B000696400009408696F75000000960869730C
:1004C000000000009808696F780000009A08696FC2
:1004D000786300009C086B69696F00009E08756F67
:1004E00075000000A008757300000000A208756F79
:1004F00078000000A4086B69756F0000A608756499
:1005000000000000A80875646D000000AA0875646A
:1005100078000000AC086B6975640000AE08747761
:1005200074720004AF08743000000004B008743125
:1005300000000004B108743200000004B2087433F3
:1005400000000004B308743400000004B4087435DB
:1005500000000004B508743600000004B6087437C3
:1005600000000004B708743800000004B8087439AB
:1005700000000004B908747800000004BA08745838
:1005800000000004BB08726173680004BC08657257
:1005900072300000BE08657272310000C0086572DA
:1005A00072320000C808696F326B0000CA08756FAC
:1005B000326B0000CC08696F63000000D4086E6DD8
:1005C00064000000EC08756466300000EE08756495
:1005D00066310000D50500007A4475730000000004
:1005E00001000000E80300000A010000000000D73D
:1005F000050000A0437073000000000000000040F0
:100600000100000E030000000000D9050000803F3B
:10061000647672000000000000000000000000008E
:100620000000000000DB0500002F4469730000009B
:100630000001000000BC02000000000000000000FB
:10064000DD050000FF447578000000000000000098
:100650000000000000000000000000DF0500008036
:10066000456B756F000000000000000000000000F6
:10067000000000000000E1050000FA446978000075
:10068000000000000000000000000000000000006A
:1006900000E305000070446978630000000000007A
:1006A000000000000000000000000000E505000060
:1006B00000466B696F0000000000000000000000B1
:1006C00000000000000000E7050000C84375646DED
:1006D000000000000000000000000000000000001A
:1006E0000000E90500803B447564780000000000CC
:1006F00000000000000000000000000000EB0552B8
:10070000B85E456B7564000000000000000000004A
:100710000000000000000000ED0500009644696440
:100720007800000000000000000000000000000051
:10073000000000EF05C1CA31456B6964000000008C
:100740000000000000000000000000000000F105B3
:100750000080BB44666D0000000000000000000047
:10076000000000000000000000F3050000FA4466ED
:100770006E00000000E8030000FF7F0000000000A2
:1007800000000000F50500007A45667800000000D2
:10079000000000000000000000000000000000F762
:1007A0000500001643636F00000000000000000019
:1007B00000000000000000000000F9050000C84330
:1007C0006373000000000000000000000000000053
:1007D0000000000000FB050000000064690000004C
:1007E0000000000000000000000000000000000009
:1007F000FD0500005C42747800000000010000006C
:10080000410000000C000100000000FF0500000096
:1008100000646F7200000000000000000000000093
:1008200000000000000001060000803F77747200A5
:1008300000000000000000000000000000000000B8
:1008400000030600008041756F700000000000008A
:10085000000000000000000000000000050600008D
:100860008041707370000000000000000000000074
:1008700000000000000000070600002041756F73B3
:100880000000000000000000000000000000000068
:100890000000090600002041707373000000000092
:1008A000000000000000000000000000000B060037
:1008B0000080416E6D70000000000000000000002C
:1008C00000000000000000000D06000000416B70F9
:1008D0007570000000000000000000000000000033
:1008E0000000000F06000080416B70707000000077
:1008F00000000000000000000000000000001106E1
:10090000000000406B6975700000000000000000EE
:1009100000000000000000000013060000803F6B94
:10092000697070000000000000000000000000007E
:1009300000000000150600007A436E6D780000008C
:100940000000000000000000000000000000001790
:10095000060000000070723000000000000000007F
:100960000000000000000000000019060000803FA9
:100970007072310000000000000000000000000064
:1009800000000000003939393ACDE5F220F1E2FFEC
:10099000E7E820F120CFC4D3003530303ACDE5E888
:1009A000E4E5EDF2E8F42EEEF8E8E1EA0031353165
:1009B0003ACDE5E8F1EFF02EECEEE42EEDE8E6EDD1
:1009C000003135303ACDE5E8F1EFF02EECEEE42ED3
:1009D000E2E5F0F500313033CDE5E8F1EFF02EE45B
:1009E000F0E2F03334EDE8E6ED00313032CDE5E809
:1009F000F1EFF02EE4F0E2F03132EDE8E6ED003117
:100A00003031CDE5E8F1EFF02EE4F0E2F03334E2FE
:100A1000E5F0F500313030CDE5E8F1EFF02EE4F00F
:100A2000E2F03132E2E5F0F5003533C7E0F9E8F203
:100A3000E02049474254333420EDE8E6ED003532FA
:100A4000C7E0F9E8F2E02049474254313220EDE8AE
:100A5000E6ED003531C7E0F9E8F2E02049474254BD
:100A6000333420E2E5F0F5003530C7E0F9E8F2E094
:100A70002049474254313220E2E5F0F5003439CFC5
:100A8000E5F0E5E3F0E5E220EAEEEDE4E5ED2EC188
:100A9000CA003237CFE5F0E5E3F0E5E22020202080
:100AA000202020202020003236CFE5F0E5E3F0E5DD
:100AB000E220202020202020202020003235CFE5F9
:100AC000F0E5E3F0E5E22020202020202020202077
:100AD000003234CFE5F0E5E3F0E5E22020202020ED
:100AE0002020202020003233CFE5F0E5E3F0E5E2DE
:100AF00020C8EDE22E20EDE8E6ED003232CFE5F041
:100B0000E5E3F0E5E220C2FBEFF02EEDE8E6ED00D4
:100B10003231CFE5F0E5E3F0E5E220C8EDE22E204A
:100B2000E2E5F0F5003230CFE5F0E5E3F0E5E22074
:100B3000C2FBEFF02EE2E5F0F5003135D2F0E0ED4A
:100B4000F1F42EF2EEEA2EE2FBF520EDE5E20031C3
:100B500034CEF2EAF0FBF2FB20E4E2E5F0E820F824
:100B6000EAE0F4003133CDE0E6E0F220C0E2E0F06C
:100B70002ECEF1F2E0EDEEE2003132C1EBEEEAE82A
:100B8000F0EEE2EAE020EFEE20E2EEE4E5003131C3
:100B9000C1EBEEEAE8F0EEE2EAE020EFEE20E2EE72
:100BA000E4E5003130CDE5E8F1EFF0E0E2ED2EEDE7
:100BB000E0E3F02FCED13F00393AC0CFD7E2EDE5E8
:100BC00020E7E0F5E2E0F2E020CED13F0038CDE8CA
:100BD000E7EAE0FF2EF7E0F1F22EEAEEEDF2F3F0B5
:100BE000E00037CFF0E5E2FBF82EF7E0F1F22EEA75
:100BF000EEEDF2F3F0E00036CFF0E5E2FBF82EE2A6
:100C0000FBF5EEE42EEDE0EFF0FFE60035CFF0E58A
:100C1000E2FBF8E5ED20F2EEEA20EAEEECECF3F28E
:100C200000343ACFF0E5E2FBF8E5ED20E2FBF5EE2B
:100C3000E42EF2EEEA00333AC2FBF1EEEAEEE520F2
:100C4000E2FBEFF02EEDE0EFF02E0032CDE8E7EA28
:100C5000EEE5C2F52EEDE0EFF02ED4E0E7E03F0048
:100C6000313ACFF0E5E2FBF8E5ED20E2F5EEE4ED18
:100C70002EF2EEEA006E616E00696E660000407A48
:100C800010F35A00A0724E18090010A5D4E8000015
:100C9000E87648170000E40B54020000CA9A3B00B3
:100CA0000000E1F505000080969800000040420F2A
:100CB000000000A08601000000102700000000E8EE
:100CC00003000000006400000000000A00000000B3
:100CD000000100000000002C76D888DC674F082354
:100CE000DFC1DFAE59E1B1B796E5E3E453C63AE6BA
:100CF00051997696E8E6C28426EB898C9B62ED409A
:100D00007C6FFCEFBC9C9F40F2BAA56FA5F49005E8
:100D10005A2AF75C936B6CF9676DC11BFCE0E40D1C
:100D200047FEF520E6B500D0ED902E030094357710
:100D3000050080841E080000204E0A000000C80C38
:100D4000333333330F986E12831141EF8D211489A1
:100D50003BE65516CFFEE6DB18D1844B381BF77CFB
:100D60001D901DA4BBE424203284725E228100C940
:100D7000F124ECA1E53D276364696E6F70737578AB
:100D8000585B000011241FBEC0E0D0E1DEBFCDBF24
:100D900012E0A0E0B1E0ECE9FAE800E00BBF02C02D
:100DA00007900D92A234B107D9F729E0A2E4B2E08E
:100DB00001C01D92A330B207E1F70E94CA380C941B
:100DC0004C450C9400001F920F920FB60F92112405
:100DD0008F939F938091CB048F5F8093CB0481E0AE
:100DE00080939A028091C8029091C90201969093D3
:100DF000C9028093C8029F918F910F900FBE0F90F0
:100E00001F901895DC01680F791F9FEF4FEFA61711
:100E1000B70771F08D919827292F30E0F901E85339
:100E2000FE4F94919427F901E853FF4F4491EFCF7F
:100E3000892F90E0942B08951092420281E008954A
:100E400091E0909342028093430281E008952091C3
:100E50004202222341F020914302FC0120831092A0
:100E6000420281E0089580E00895539A882319F0A2
:100E70008AB1806902C08AB18F768AB9662321F06F
:100E80008AB188628AB90895559808950F9380E1D0
:100E900089B982E08BB9013021F0023021F480E27F
:100EA00003C080E301C080E0273021F0283019F42E
:100EB000866001C0846090919500892B8093950095
:100EC00060E080E00E94350781E00F9108958CB9C1
:100ED00081E008952CB1FC01208381E008951F92E8
:100EE0000F920FB60F9211240BB60F922F933F93D0
:100EF0004F935F936F937F938F939F93AF93BF9322
:100F0000EF93FF93E091D903F091DA030995FF91F4
:100F1000EF91BF91AF919F918F917F916F915F9171
:100F20004F913F912F910F900BBE0F900FBE0F90DE
:100F30001F9018951F920F920FB60F9211240BB6A7
:100F40000F922F933F934F935F936F937F938F9362
:100F50009F93AF93BF93EF93FF93E091DD03F091E5
:100F6000DE030995FF91EF91BF91AF919F918F9112
:100F70007F916F915F914F913F912F910F900BBE99
:100F80000F900FBE0F901F9018951092890010922D
:100F900088008091440290914502892B69F08091EC
:100FA0007D00806180937D00809144029091450294
:100FB000909387008093860080918A00856080935B
:100FC0008A000895EAE8F0E080818A7F8083EDE777
:100FD000F0E080818F7E8083ECE7F0E080818061AB
:100FE000808308959C01AAE9BBE30E94BD3F20E2F3
:100FF0003EE440E050E00E94733F3093450220936E
:10100000440210928B0010928A0010928C000E9471
:10101000E20781E008951F920F920FB60F921124FC
:101020000BB60F922F933F934F935F936F937F93E2
:101030008F939F93AF93BF93EF93FF93E091DB0365
:10104000F091DC030995FF91EF91BF91AF919F91D2
:101050008F917F916F915F914F913F912F910F9061
:101060000BBE0F900FBE0F901F9018950F93862FF9
:10107000BA01A901F8949AE09093460227E00E94F1
:101080004607813031F480E29EE40E94F20781300D
:1010900011F083E001C080E078940F910895F894F6
:1010A00060E081E00E94350710924F02789480E062
:1010B0000C942007F89460E080E00E9435070E94BD
:1010C000E20778940895DC01F89480914D029091A4
:1010D0004E02039718F120914D0230914E02E9ED36
:1010E000F2E027523D4F90E0E217F30719F08191AB
:1010F000980FFACF911112C08091D9028C938091F0
:101100004D0290914E020297FA01918380838AEDFD
:1011100092E0FB019183808380E001C085E07894B8
:101120000895F89490914F0291113BC0FB013197C3
:10113000F0934B02E0934A0221E030E03093490201
:101140002093480280838091480290914902480F81
:10115000591F509349024093480220914802309110
:10116000490280E02150310918F09191890FFACF9E
:1011700081952091480230914902A9014F5F5F4F4C
:101180005093490240934802F901E752FD4F808392
:1011900081E08093500261E080E00E94350780E0AA
:1011A00001C085E078940895CF93DF931F92CDB767
:1011B000DEB7CE0101960E946A0780914F0281300E
:1011C00031F008F474C0823009F453C07EC00E942C
:1011D000C50799819A3339F410924C0210924E024D
:1011E00010924D0272C09D3011F482E06CC080ED0F
:1011F000890F8A3040F08FEB890F863018F489EC24
:10120000890F01C08FEF90914C029923C1F091306A
:1012100009F05BC0E0914D02F0914E02E752FD4FA4
:101220009081892B808380914D0290914E0201968E
:1012300090934E0280934D0210924C0246C0209132
:101240004D0230914E022F3F310509F068F4E091D4
:101250004D02F0914E02E752FD4F8295807F8083D0
:1012600081E080934C0231C010924F020E94E2074D
:101270002CC0898190914602891308C00E94E20720
:1012800010924F0281E00E94200720C08A3361F44F
:1012900010924C0210924E0210924D0281E0809307
:1012A0004F020E94C50711C010924F020EC08981E3
:1012B0008A3359F40E94C50710924E0210924D02D3
:1012C00010924C0281E080934F0280E00F90DF91FA
:1012D000CF910895CF9380915002823019F178F424
:1012E000882309F474C0813009F075C08AE30E9434
:1012F000670782E08093500210924C026CC08330EA
:1013000009F45DC0843009F066C01092500283E099
:101310000E942007C82F60E081E00E9435071092EC
:1013200050025AC08091480290914902892B09F4D9
:1013300041C080914C02882319F08130C9F04BC024
:10134000E0914A02F0914B02808182958F708A3041
:1013500010F4805D07C096EF980F963010F4895C0A
:1013600001C080E30E94670781E080934C0233C094
:10137000E0914A02F0914B0280818F708A3010F424
:10138000805D01C0895C0E94670780914A0290914C
:101390004B02019690934B0280934A0210924C02AA
:1013A000809148029091490201979093490280935D
:1013B000480211C08DE00E94670783E005C080915C
:1013C00046020E94670784E08093500204C060E0F8
:1013D00081E00E943507C0E08C2FCF910895809165
:1013E0004F028150823010F410924F020E94E207A7
:1013F00080E008951F93CF93DF93FC01EB01888178
:101400009981059709F047C081819281438150E01D
:10141000542F44272481422B9A01215031092F3C1B
:101420003740C8F51982188221E02083288139814C
:101430002F5F3F4F39832883BA0123E07695679564
:101440002A95E1F79A0127703327232B19F011E031
:10145000160F01C0162F1183288139812F5F3F4F4E
:1014600039832883692F70E0782B6F5F7F4F20E0EE
:10147000CF0102960E94AD2F882329F0DF91CF91F2
:101480001F910C942A0D88819981810F911D998358
:10149000888380E001C083E0DF91CF911F910895A0
:1014A000CF93DF9300D0CDB7DEB7FC01DB018D9188
:1014B0009C91059709F591816281848181111CC0FD
:1014C00083812FEF280F2E3FB8F01A828F3F19F437
:1014D00081E0898301C0198270E0792B6F5F7F4FB3
:1014E00021E041E050E0CE0101960E94AD2F88231B
:1014F00029F00E942A0D03C083E001C080E00F9014
:101500000F90DF91CF910895CF93DF93FC01DB0122
:101510008D919C91069798F131812281438150E011
:10152000542F44278481482BA581EA01C770DD2709
:10153000CA01B3E096958795BA95E1F7CD2B09F0EE
:101540008F5FEA012197C03BD740C8F48A1317C0C8
:10155000EB01CF01622F70E0732B6F5F7F4F21E0B3
:1015600006960E94AD2F882321F0DF91CF910C9435
:101570002A0D85E090E09983888380E001C083E0B4
:10158000DF91CF9108951F93CF93DF93FC01EB017F
:1015900088819981059709F046C0818192814381B4
:1015A00050E0542F44272481422B9A0121503109C5
:1015B0002F3C3740C0F51982188222E02083288111
:1015C00039812F5F3F4F39832883BA0123E0769515
:1015D00067952A95E1F79A0127703327232B19F095
:1015E00011E0160F01C0162F1183288139812F5F5A
:1015F0003F4F39832883692F70E0782B6F5F7F4FCF
:10160000CF0102960E94FC2F882329F0DF91CF9111
:101610001F910C942A0D88819981810F911D9983C6
:10162000888380E001C083E0DF91CF911F9108950E
:10163000FB012081318125303105A1F4FC0161815C
:1016400070E0762F66278281682B6F5F7F4F21E0E5
:1016500041E050E0CF0103960E94632E882321F0E1
:101660000C942A0D83E0089580E00895CF93DF93D2
:10167000FC01DB018D919C91069748F1318122811B
:10168000438150E0542F44278481482B9581DA010F
:101690001197A837B105D8F4842F880F981317C075
:1016A000EB01CF01622F70E0732B6F5F7F4F21E062
:1016B00006960E94632E882321F0DF91CF910C942F
:1016C0002A0D85E090E09983888380E001C083E063
:1016D000DF91CF9108950F931F93CF93DF93FC0178
:1016E000DB018D919C910597D9F5818192812481AF
:1016F000022F10E0A801415051094D37510580F5E6
:10170000EB011982188233E03083488159814F5FA1
:101710005F4F59834883220F2183288139812F5FAE
:101720003F4F39832883692F70E0782B6F5F7F4F9D
:1017300020E0A801CF0102960E94632E882331F099
:10174000DF91CF911F910F910C942A0D000F111F63
:1017500088819981080F191F1983088380E001C0CF
:1017600083E0DF91CF911F910F910895CF92DF9287
:10177000EF92FF920F931F93CF93DF93FC01DB0156
:101780008D919C910A9708F459C0C180D280038141
:1017900010E0102F00278481082B958186813781E6
:1017A00040852185D8011197AD37B10508F048C0B3
:1017B00050E0532BDA011197A937B10508F040C06A
:1017C00030E0DA01AA0FBB1FA217B307C9F57B01EE
:1017D000EF01682F70E0792B6F5F7F4F21E0CF0121
:1017E0000A960E94632E81112DC0F701118210828A
:1017F00087E1888380819181019691838083802F06
:10180000880F8983808191810196918380836D2DDA
:1018100070E07C296F5F7F4F20E0A801CE01029627
:101820000E94632E81110EC0000F111FD7018D91F0
:101830009C911197080F191F0D931C9380E00CC009
:1018400083E00AC0DF91CF911F910F91FF90EF903D
:10185000DF90CF900C942A0DDF91CF911F910F91C3
:10186000FF90EF90DF90CF9008950F931F93CF9349
:10187000DF93FC01DB018D919C911197059709F095
:1018800043C081819281C381D0E0DC2FCC272481A9
:10189000C22B9E01215031092C373105A8F58B014F
:1018A00011961C921E9224E020832D913C91119759
:1018B0002F5F3F4F11963C932E932C2F220F2183A5
:1018C0002D913C9111972F5F3F4F2D933C93692FA2
:1018D00070E0782B6F5F7F4FAE01CF0102960E94C0
:1018E000392E882331F0DF91CF911F910F910C9405
:1018F0002A0DCC0FDD1FF80180819181C80FD91FFF
:10190000D183C08380E001C083E0DF91CF911F913C
:101910000F910895CF93DF93E9012296C032D1054C
:10192000E8F48093530282E090E090935202809317
:10193000510281E0611101C080E0819580935402E1
:101940002115310569F0BA01A90185E592E00E94EF
:10195000C140D0935202C093510202C084E001C042
:1019600080E0DF91CF9108950F931F93CF93DF9382
:101970008B01C0915102D0915202AE0163E572E039
:1019800001960E94C1402196F801D183C08380E076
:10199000DF91CF911F910F9108950F931F93CF93D4
:1019A000DF9330E08B0153E0169507955A95E1F7E8
:1019B00067707727E1E0F0E002C0EE0FFF1F4A9565
:1019C000E2F73197EC01C00FD11F48810F5F1F4F25
:1019D000DC01A00FB11F8C9150E0582B062E02C0E5
:1019E000EE0FFF1F0A94E2F7E095F0954E235F2378
:1019F00002C0220F331F6A95E2F7422B532B488314
:101A00005C93DF91CF911F910F910895FB0123E02B
:101A1000F695E7952A95E1F7DC01AE0FBF1F2C91F3
:101A200011968C9130E0382B53E0EE0FFF1F5A9542
:101A3000E1F76E1B7F0B02C0369527956A95E2F79A
:101A400081E090E002C0880F991F4A95E2F7019764
:101A500082230895883030F4E82FF0E0E85BFE4FF1
:101A60008081089584E00895CF92DF92EF92FF92F3
:101A70000F93862F69017A01F89428E0B701A60137
:101A80000E9446078130E9F481E0C8168BE4D8064D
:101A9000E104F10468F4A7019601220F331F441FEB
:101AA000551F60EA7FE787E190E00E94733F04C022
:101AB00023E230E040E050E0C9010E94F2078130AB
:101AC00011F083E001C080E078940F91FF90EF90D7
:101AD000DF90CF900895F8941092790260E081E051
:101AE0000E9435070E94C50778940895F89460E035
:101AF00080E00E9435070E94E20778940895EF92F3
:101B0000FF920F931F93CF93DF93F894209173026A
:101B1000309174022430310510F485E01EC08A0132
:101B2000EB017C01609173027091740289ED92E087
:101B30000E940207892B89F78091D902F7018083DF
:101B400080917302909174020397F80191838083CE
:101B50008AED92E09983888380E07894DF91CF9139
:101B60001F910F91FF90EF900895CF93F894C0913B
:101B70007902C13009F046C0282FCB01019790931C
:101B800078028093770261E070E070937602609350
:101B90007502FC0120832091750230917602420F7C
:101BA000531F5093760240937502609175027091B5
:101BB00076020E940207492F209175023091760229
:101BC000B9016F5F7F4F7093760260937502F901E0
:101BD000E752FD4F808380917502909176029C01BF
:101BE0002F5F3F4F3093760220937502FC01E7523E
:101BF000FD4F4083C0937A0261E080E00E94350788
:101C000080E001C085E07894CF910895CF93DF9371
:101C10001F92CDB7DEB7CE0101960E946A07809170
:101C20007902813031F0B8F18230C9F0833099F116
:101C300034C01092740210927302809173029091DA
:101C400074029C012F5F3F4F309374022093730204
:101C50002981FC01E752FD4F208382E01AC0809168
:101C60007302909174028F3F910509F088F480917E
:101C70007302909174029C012F5F3F4F3093740266
:101C8000209373022981FC01E752FD4F208303C09A
:101C900083E0809379020E94C50780E00F90DF9176
:101CA000CF910895CF9380917A02882319F08130E3
:101CB00031F030C060E081E00E9435072BC0809198
:101CC000750290917602892BD1F0E0917702F09124
:101CD000780280810E946707809177029091780254
:101CE000019690937802809377028091750290918B
:101CF0007602019790937602809375020BC083E081
:101D00000E942007C82F60E081E00E9435071092F2
:101D10007A0201C0C0E08C2FCF910895CF93DF935A
:101D20001F92CDB7DEB780917902882321F08230EF
:101D300031F481E001C080E00E94200701C080E012
:101D400089830E94E20791E09093790289810F9044
:101D5000DF91CF910895EF920F931F93CF93DF936D
:101D6000D82F962F642F8FEF890F873F08F07AC006
:101D7000A9019801892F90938D02DD23A9F1D1301B
:101D800009F070C0EFE4F8E0F0938902E093880274
:101D9000EAE5F8E0F0938702E0938602E1E9F8E0F3
:101DA000F0938B02E0938A02E3E6F8E0F093850279
:101DB000E09384021092830210928202E4EDF8E034
:101DC000F093DE03E093DD03EAE6F9E0F093DA0353
:101DD000E093D903EFEEF9E0F093DC03E093DB034B
:101DE0000E2D0E94360831C0EBE6FDE0F09389022B
:101DF000E0938802E6E7FDE0F0938702E093860235
:101E0000E5EBFDE0F0938B02E0938A02EFE7FDE063
:101E1000F0938502E0938402109283021092820272
:101E2000E6E0FEE0F093DE03E093DD03E2E5FEE0B2
:101E3000F093DA03E093D903EEE8FEE0F093DC03DD
:101E4000E093DB030E2D0E94340DC82F81110DC0CD
:101E50000E941C07882341F0D0938C0281E080937C
:101E6000310103C0C2E001C0C3E08C2FDF91CF91EC
:101E70001F910F91EF90089518160CF03DC0F89443
:101E8000E1E0F1E020E030E06115710521F14181F0
:101E900052814115510571F4F901EE0FFF1FE20F58
:101EA000F31FEF5FFE4F8083728361832031310522
:101EB00001F509C04617570779F32F5F3F4F339657
:101EC0002031310521F784E015C02F5F3F4F339655
:101ED0002031310571F090819813F7CFF901EE0FA1
:101EE000FF1F2E0F3F1FF901EF5FFE4F108212827E
:101EF000118280E07894089582E008958091310104
:101F0000813041F4E0918202F0918302309721F018
:101F1000099502C086E0089580E00895809131011E
:101F2000813049F4E0918802F0918902099510927C
:101F3000310180E0089586E008958091310181119A
:101F400009C0E0918602F0918702099581E08093B3
:101F5000310104C0813011F086E0089580E00895D9
:101F6000CF93DF931F92CDB7DEB7809131018111FE
:101F700089C0CE0101960E942707813009F084C0F4
:101F80009981913089F0923009F07EC0A0917F0252
:101F9000B09180029C9190937C0280937B02E1E05F
:101FA000F1E020E030E01FC0E0918402F091850272
:101FB0004DE752E06FE772E081E892E00995811108
:101FC00063C08091810290918D02891711F0811177
:101FD0005BC082E00E94200757C02F5F3F4F3396BF
:101FE00020313105B1F08081882399F08913F5CF34
:101FF000F901EE0FFF1F2E0F3F1FF901EF5FFE4F9C
:102000000180F281E02D6DE772E0CD0109958093AA
:102010007B02809181028823B9F120917B022223E7
:1020200009F1E0917F02F091800281E090E09093CD
:102030007E0280937D0280917C0280688083409143
:102040007F025091800280917D0290917E02BC01BE
:102050006F5F7F4F70937E0260937D02FA01E80FFD
:10206000F91F208340917D0250917E0260917F0292
:1020700070918002E0918A02F0918B0280918D0232
:10208000099502C086E001C080E00F90DF91CF91FA
:102090000895982F80FF02C080E801C080E091FD84
:1020A000805C92FD805E93FD805F94FD885F95FD6E
:1020B0008C5F96FD8E5F97FD8F5F0895F8948D9AE3
:1020C00095982EEF22B92DEF27BBE1E6F0E027E649
:1020D0002083969A8E9A282F236023B9292F392F8F
:1020E000330F330B926098BBA2E6B0E09C918370F3
:1020F000987F892B220F331F2470282B2C939698BE
:1021000082E082B917BA80E68083959A969A8E9A71
:1021100030B126B32D7F832F847090E095958795FD
:10212000822B982F882721B1789433702C7F232B12
:10213000822B0895F8948D9A95982EEF22B92DEF61
:1021400027BB27E620936100969A8E9A282F23605A
:1021500023B9292F226028BBE2E6F0E020818370BA
:10216000287F822B990F9470982B90839698862FB6
:10217000836083B9872F826088BB80816370887F8A
:10218000682B770F7470762B7083969A8E9A78945A
:102190000895609178087091790885E790E00C9433
:1021A0009A104F925F926F927F928F929F92AF920E
:1021B000BF92CF92DF92EF92FF92CF93DF9300D046
:1021C00000D0CDB7DEB7209184083091850840E07B
:1021D00050E080EA482E8CEA582E89EB682E83E086
:1021E000782EC301B2010E94733F49015A01B9011F
:1021F0008CE190E00E949A10209188083091890823
:1022000040E050E0C301B2010E94733F69017A01CE
:10221000B9018DE190E00E949A10209186083091DA
:10222000870840E050E0C301B2010E94733FB9014A
:102230008EE190E029833A834B835C830E949A105D
:1022400029813A814B815C81C501B401621B730B0A
:10225000840B950B6115E0E87E078105910564F418
:102260006115E0E87E07EFEF8E079E074CF460E013
:1022700070E88FEF9FEF04C06FEF7FE780E090E0A2
:1022800086E990E029833A834B835C830E949A100D
:1022900029813A814B815C81C701B601621B730BB6
:1022A000840B950B611520E872078105910564F494
:1022B0006115E0E87E07EFEF8E079E074CF460E0C3
:1022C00070E88FEF9FEF04C06FEF7FE780E090E052
:1022D00087E990E00F900F900F900F90DF91CF91D2
:1022E000FF90EF90DF90CF90BF90AF909F908F9036
:1022F0007F906F905F904F900C949A108F929F9266
:10230000AF92BF92CF92DF92EF92FF92CF93DF9383
:1023100000D000D0CDB7DEB7209184083091850879
:1023200040E050E080EA882E8CEA982E89EBA82EB7
:1023300083E0B82EC501B4010E94733FB9018CE15E
:1023400090E00E949A10209188083091890840E01E
:1023500050E0C501B4010E94733F69017A01B901DF
:102360008DE190E00E949A102091800830918108C0
:102370004091820850918308C501B4010E94733FC7
:10238000B9018EE190E029833A834B835C830E94FC
:102390009A1029813A814B815C81D701C601821B49
:1023A000930BA40BB50B9C01AD01AFE5B0E00E940F
:1023B000D33F20E830E040E050E00E94953F2115F7
:1023C00090E839074105510564F42115A0E83A0762
:1023D000AFEF4A075A074CF420E030E84FEF5FEFC9
:1023E00004C02FEF3FE740E050E0B90187E990E0FB
:1023F0000F900F900F900F90DF91CF91FF90EF9083
:10240000DF90CF90BF90AF909F908F900C949A10D8
:102410008D9A95982EEF22B92DEF27BB27E62093B2
:102420006100969A8E9A282F236023B9292F226063
:1024300028BBE2E6F0E020818370287F822B990F91
:102440009470982B90839698862F836083B9872FFA
:10245000826088BB80816370887F682B770F74707F
:10246000762B7083969A8E9A08958D9A95982EEF72
:1024700022B92DEF27BBE1E6F0E027E62083969A0C
:102480008E9A282F236023B9292F226028BBA2E629
:10249000B0E02C918370287F822B990F9470982B39
:1024A0009C93969882E082B917BA80E68083959AC9
:1024B000969A8E9A30B126B32D7F832F847090E048
:1024C00095958795822B982F882721B133702C7F83
:1024D000232B822B0895809100098B300CF4A3C02C
:1024E0008EE190E00E945E109C01990F440B550B09
:1024F00060EA7CEA89EB93E00E94733F20938008B6
:1025000030938108409382085093830888E190E0DB
:102510000E945E109C01990F440B550B253031052C
:10252000410551051CF420E030E0A901A09192087A
:10253000B09193080E94D33F9B01AC0167E0559591
:102540004795379527956A95D1F7A091AC08B0913A
:10255000AD080E94D33FE6E09595879577956795FE
:10256000EA95D1F724E630E040E050E00E94953F44
:1025700030937D0820937C088AE190E00E945E10F1
:102580009C01990F440B550B233031054105510532
:102590001CF420E030E0A901A091A408B091A508A6
:1025A0000E94D33FDC01CB014AE0B595A7959795F2
:1025B00087954A95D1F790939F0880939E088BE169
:1025C00090E00E945E109C01990F440B550B233044
:1025D0003105410551051CF420E030E0A901A0912E
:1025E0009C08B0919D080E94D33FDC01CB013AE0EA
:1025F000B595A795979587953A95D1F790939508B6
:102600008093940889E190E00E945E109093CD0839
:102610008093CC088FE290E00E945E109093D508E2
:102620008093D40820C0882321F0863011F08A30AE
:10263000D1F48091860890918708A0E0B0E0809363
:10264000800890938108A0938208B0938308109229
:102650007D0810927C0810929F0810929E0810929C
:1026600095081092940887E190E00E945E109C010A
:10267000990F440B550B23303105410551051CF4CE
:1026800020E030E0A901A091AC08B091AD080E9413
:10269000D33FDC01CB012AE0B595A79597958795A7
:1026A0002A95D1F79093A7088093A6080895CF9212
:1026B000DF92EF92FF92CF93DF93C0917E08D0918B
:1026C0007F08CE01A0E0B0E0BC01CD014CE0660F78
:1026D000771F881F991F4A95D1F72091AC08309138
:1026E000AD0840E050E00E94953F69017A015CE04E
:1026F000CC0CDD1CEE1CFF1C5A95D1F720919208E2
:1027000030919308AAE0B0E00E94BD3F9B01AC016C
:10271000C701B6010E94953FCA01B90195958795F9
:10272000779567957093D9086093D80820917808B9
:1027300023FD04C0D093D908C093D8082091000984
:10274000243181F483E290E00E949A10809178080D
:1027500083FD08C060917E0870917F088FE290E051
:102760000E949A106091A0087091A108CB01A0E08E
:10277000B0E0BC01CD013AE0660F771F881F991FBA
:102780003A95D1F72091A4083091A50840E050E097
:102790000E94733F8091CE089091CF082817390787
:1027A00010F0B90101C0BC016093D6087093D7083E
:1027B00080910009843121F48DE290E00E949A100A
:1027C0006091960870919708CB01A0E0B0E0BC0141
:1027D000CD012AE0660F771F881F991F2A95D1F730
:1027E00020919C0830919D0840E050E00E94733F8A
:1027F000B9018BE290E00E949A108091780884FFE2
:1028000004C0809100098B3044F4DF91CF91FF9098
:10281000EF90DF90CF900C94D110DF91CF91FF908B
:10282000EF90DF90CF9008958091780884FF04C0E6
:10283000809100098B3014F40E94D11060919008AF
:1028400070919108CB01A0E0B0E0BC01CD01FAE0AD
:10285000660F771F881F991FFA95D1F7209192086C
:102860003091930840E050E00E94733FB9012F3F40
:10287000314010F06EEF71E08FE190E00E949A100D
:102880006091AA087091AB08CB01A0E0B0E0BC0158
:10289000CD01EAE0660F771F881F991FEA95D1F7EF
:1028A0002091AC083091AD0840E050E00E94733FA9
:1028B000B9012F3F314010F06EEF71E081E290E0FE
:1028C0000E949A106091A2087091A308CB01A0E029
:1028D000B0E0BC01CD015AE0660F771F881F991F39
:1028E0005A95D1F72091A4083091A50840E050E016
:1028F0000E94733FB9012F3F314010F06EEF71E03D
:102900008CE290E00E949A106091A0087091A1085A
:10291000CB01A0E0B0E0BC01CD014AE0660F771F1B
:10292000881F991F4A95D1F72091A4083091A508D6
:1029300040E050E00E94733F3093D7082093D608C0
:1029400080910009843129F4B9018DE290E00E9460
:102950009A106091980870919908CB01A0E0B0E0BE
:10296000BC01CD013AE0660F771F881F991F3A9589
:10297000D1F720919C0830919D0840E050E00E94E2
:10298000733FB9012F3F314010F06EEF71E08AE2E2
:1029900090E00E949A1060919A0870919B08CB0178
:1029A000A0E0B0E0BC01CD012AE0660F771F881FD0
:1029B000991F2A95D1F720919C0830919D0840E0FD
:1029C00050E00E94733FB9012F3F314010F06EEF8D
:1029D00071E086E290E00E949A100E9457130C94D6
:1029E000C91060E070E083E990E00E949A1060E016
:1029F00070E084E990E00E949A1060E070E085E960
:102A000090E00E949A1065E57AEA80ED90E00E94DD
:102A10009A100E949B3661E070E08EE290E00E9486
:102A20009A1061E070E08FE290E00C949A10EF92BF
:102A3000FF920F931F93CF93DF937C018B01EA01E9
:102A4000FC01208131812430310509F457C07CF428
:102A500022303105E1F12330310509F08EC085E0E7
:102A600090E0F70191838083CA01939541C026309D
:102A70003105A1F00CF47EC02730310509F07DC08E
:102A800065E57AEA8EEC90E00E949A10B80189EC34
:102A900090E00E949A1000E010E054C065E57AEAE8
:102AA0008EEC90E00E949A10B80189EC90E00E94B0
:102AB0009A1061E070E08DEC90E00E949A1082E044
:102AC00090E0F7019183808388E592E008C08091CF
:102AD0008E0290918F02009709F44CC00197909359
:102AE0008F0280938E0249C0C817D90709F445C0E8
:102AF00029912F3FC9F384E090E020C089EC90E059
:102B00000E949A108E01139589910E944910682F96
:102B100070E088EC90E00E949A10C017D107A1F7EE
:102B200061E070E08BEC90E00E949A1081E090E010
:102B300090938F0280938E0282E090E0F701918360
:102B400080831BC0B8018AEC90E00E949A1061E07B
:102B500070E08CEC90E00E949A108CEC90E00E9467
:102B60005E100E94491089930F5F1F4F0115F1E01D
:102B70001F0741F7F70111821082DF91CF911F915A
:102B80000F91FF90EF9008959FEF94BBE5E6F0E082
:102B900090819B7F908385BB80818260808385E06C
:102BA0008A95F1F7000080818D7F80830895E5E6A6
:102BB000F0E0808182608083000083B390819D7FFC
:102BC0009083089580EE8A95F1F70895CF93DF936F
:102BD00090EE9A95F1F794E0899FE0011124BE01EF
:102BE0006E5F7F4F83E090E00E949A1085E08A95A7
:102BF000F1F70000BE0183E090E00E949A10BE0150
:102C00006F5F7F4F83E090E0DF91CF910C949A103B
:102C1000CF93DF9390EE9A95F1F795E09A95F1F7BF
:102C20000000803C28F0E82FF0E0E85FFD4F849141
:102C300094E0899FE0011124BE016D5F7F4F83E026
:102C400090E00E949A1085E08A95F1F70000BE019D
:102C50006F5F7F4F83E090E0DF91CF910C949A10EB
:102C600080EE8A95F1F7E5E6F0E08081816080836F
:102C700085E08A95F1F700000C94D71590919102A8
:102C800080919002923031F0933031F0913029F4FC
:102C9000805C03C08C5E01C08C5A80680C94E61581
:102CA00010929102109290020C943E1686E9E2E492
:102CB000FFE03197F1F7A8958150C9F780E30E94B2
:102CC000E61589E2E2E4FFE03197F1F7A89581503B
:102CD000C9F780E30E94E61582E49FE00197F1F7CF
:102CE00080E30E94E61588E30E94E6158EE00E94CC
:102CF000E61582E00E94E615E4E8FEE13197F1F77F
:102D0000000081E00E94E61584E89EE10197F1F75A
:102D100000008CE00E94E6158DE00E94E6150C9400
:102D200050160F931F93CF93DF93EC018C01005B40
:102D30001F4F8991882389F18A3031F48091910263
:102D40008F5F8093910204C08C3039F4109291020D
:102D5000109290020E943E1611C09091900289300C
:102D600021F49F5F90939002F5CF943138F40E9444
:102D70000816809190028F5F80939002809190025C
:102D8000843141F480919102833021F410929102B8
:102D900010929002C017D10761F6DF91CF911F9179
:102DA0000F910895CF93DF93CDB7DEB7A8970FB6F5
:102DB000F894DEBF0FBECDBF9E012F5F3F4FD901FC
:102DC00058E2520FFC0144914D93442319F00196AF
:102DD0005A13F8CFC9010E949116A8960FB6F8941D
:102DE000DEBF0FBECDBFDF91CF9108950F931F932C
:102DF000CF93DF93EB0110929002809391020E9497
:102E00003E168E010C5E1F4F89910E94081680911C
:102E100090028F5F80939002C017D107A9F7DF91CE
:102E2000CF911F910F9108951F93CF93DF93C82FD8
:102E3000D0E080919002C81BD1098091910283302B
:102E400049F4611102C0EC9728C06130A1F06230F2
:102E500071F023C0823039F4662369F06130C1F02B
:102E6000633091F01AC0813059F4611102C0A89703
:102E700014C0623011F4649710C0633049F00DC083
:102E800081110BC0613011F4A89607C0623011F4B3
:102E9000649603C0633009F4EC9610E0D7FF0DC0D0
:102EA000D195C195D109812F90E08C179D077CF4B5
:102EB00080E10E94E6151F5FF6CF812F90E08C170E
:102EC0009D072CF484E10E94E6151F5FF6CFDF9189
:102ED000CF911F910895F8942091F503213198F432
:102EE0009091F403E92FF0E0E750FC4F808381E0FC
:102EF000890F803119F08093F40302C01092F4031B
:102F00002F5F2093F50378940895CF93DF93663075
:102F100008F065E0C62FD0E0C751DC4F882371F080
:102F20009881911102C00E946B17E0919202F0E02B
:102F3000ED51FC4F84E6808382E304C088818823BE
:102F400011F081508883DF91CF910895E091920232
:102F5000F0E0ED51FC4F9081911102C00E946B177F
:102F6000E0919202F0E0ED51FC4F8AE080830895F9
:102F7000E0919202F0E0ED51FC4F9081911109C077
:102F80000E946B17E0919202F0E0ED51FC4F82E35A
:102F9000808308951092F8031092F4031092F503C1
:102FA00010920904089585E090E00E945E109091CF
:102FB0009402282F291B8093940227FF02C08DE2E0
:102FC00003C0222319F08BE20C946B1708958091B3
:102FD0009302811105C00E94CA1781E08093930279
:102FE0008091F1039091F203803D27E0920734F441
:102FF00001969093F2038093F10308950E94D317F2
:1030000080919202E82FF0E0ED51FC4F90819923DE
:1030100011F091509083833009F48AC030F48130EC
:1030200049F1823009F445C006C0843009F49EC0DD
:10303000853009F4C9C010929202CA9903C08AE08F
:103040000E94A617C99902C082E403C0C89904C0AF
:1030500083E40E94B8170AC0E0919202F0E0ED51BB
:10306000FC4F80818B3010F08AE08083DF98D79806
:10307000D69AADC0CA9903C08BE10E94A617C99920
:1030800002C084E403C0C89904C081E40E94B81758
:103090000AC0E0919202F0E0ED51FC4F80818B304C
:1030A00010F08AE08083DF98D798DE98D698D59A7A
:1030B00090C08091F303882389F065E0CA9902C02B
:1030C00089E703C0C99904C08AE70E94851715C023
:1030D000C89902C08FE6F9CF80E0F7CFCA9903C044
:1030E00089E30E94A617C99903C080E30E94A6172E
:1030F000C89903C08EE20E94A61764E0049907C035
:103100008DE30E94851781E08093F30303C080E084
:103110000E9485178091ED03813011F41092F30322
:10312000DF98D798DE98D698DD98D598D49A53C072
:10313000CA9903C085E30E94A617C99903C086E314
:103140000E94A617C89903C087E30E94A617049996
:1031500003C088E30E94A617DF98D798DE98D69818
:10316000DD98D598DC98D498D39A37C08091F30332
:10317000882399F0CA9903C080E70E94A617C999CD
:1031800003C081E70E94A617C89903C082E70E9486
:10319000A617049916C083E712C0CA9903C081E339
:1031A0000E94A617C99903C082E30E94A617C89976
:1031B00003C083E30E94A617049903C084E30E941E
:1031C000A617DF98D79801C0D79ADE98D698DD98D1
:1031D000D598DC98D498DB98D3988091F503882310
:1031E00019F081E08093090480919202853020F4E7
:1031F0008F5F8093920208951092920208958091B9
:10320000F5038823B9F09091F803E92FF0E0E75037
:10321000FC4F80819F5F903119F09093F80302C0BA
:103220001092F803F8949091F50391509093F50360
:103230007894089580E008959FE088E10FB6F894AF
:10324000A89581BD0FBE91BDA8958FEF9FEF9BBD47
:103250008ABD1FBC83E08EBD84E087BF82E08BB94E
:1032600088E98AB98EE0809395001092900080E101
:1032700089B913BC08951F920F920FB60F921124B3
:103280000BB60F924F935F936F937F938F939F93A0
:10329000AF93BF93EF93FF939091950280911904A0
:1032A000992321F010929502846004C091E09093DC
:1032B0009502866087B984B195B1E0919502F0E0FE
:1032C000DF01AA0FBB1FAA0FBB1FA253BD4F4D9119
:1032D0005D916D917C911397480F591F611D711D70
:1032E0004D935D936D937C931397EE0FFF1FE55FF6
:1032F000FB4F80819181019691838083FF91EF91B3
:10330000BF91AF919F918F917F916F915F914F91FD
:103310000F900BBE0F900FBE0F901F9018958091CD
:103320001A04811105C00E941C1981E080931A04BF
:1033300087E790E00E945E1090910F0481FD04C029
:10334000943038F49F5F03C0992319F09150909303
:103350000F049091100480FD04C0943038F49F5FF6
:1033600003C0992319F0915090931004879907C0D6
:1033700080911104843018F48F5F80931104879B2F
:1033800007C080911104882319F0815080931104A3
:10339000079907C080911204843018F48F5F8093DE
:1033A0001204079B07C080911204882319F08150F2
:1033B000809312048091630080FD07C08091130404
:1033C000843018F48F5F809313048091630080FF32
:1033D00007C080911304882319F08150809313044F
:1033E0008091630081FD07C080911404843018F43B
:1033F0008F5F809314048091630081FF07C08091E8
:103400001404882319F0815080931404989907C0FC
:1034100080911504843018F48F5F80931504989B75
:1034200007C080911504882319F0815080931504FA
:10343000999907C080911604843018F48F5F8093A7
:103440001604999B07C080911604882319F08150B7
:10345000809316049A9907C080911704843018F459
:103460008F5F809317049A9B07C08091170488236D
:1034700019F08150809317049B9907C0809118041C
:10348000843018F48F5F809318049B9B07C0809151
:103490001804882319F0815080931804A4EDB6E035
:1034A000EFE0F4E098E09E0F219181E0233008F4F2
:1034B00080E08D939E13F8CF089590E0FC01E95CC5
:1034C000F109EA30F10538F5EA5BFF4F81E090E061
:1034D0000C94B43F20910F041AC02091100417C01F
:1034E0002091110414C02091120411C020911304E2
:1034F0000EC0209114040BC02091150408C0209127
:10350000160405C02091170402C02091180423302E
:1035100020F480E0089580E090E008956B3CD1F0C5
:1035200028F4693C49F06A3C71F008956D3C51F112
:10353000C0F06E3CB1F10895882311F0AD9A01C03E
:10354000AD98A59A0895882311F0AE9A01C0AE985F
:10355000A69A0895882311F0AF9A01C0AF98A79A50
:103560000895882321F080916500846003C08091D4
:1035700065008B7F809365008091640084608093F8
:1035800064000895882321F080916200806403C064
:10359000809162008F7B80936200809161008064E3
:1035A0000EC0882321F080916200806203C0809168
:1035B00062008F7D809362008091610080628093C1
:1035C00061000895282FDC0180E09A2F921B961746
:1035D00038F4ED91E827F0E0E75FFC4F8491F5CFF8
:1035E000089560911B048DE994E00E94E21A91E035
:1035F000811190E0892F089590919802992309F400
:103600003FC090919902292F30E04091420150E053
:10361000BA016F5F7F4F62177307C4F4109299026B
:1036200010929802843051F481E0809396026DE507
:1036300074E08DE194E00E94C14003C081E080937A
:10364000970210929902109298020895803229F1FF
:10365000992349F0913051F4805280934201813492
:1036600058F0909397021092980206C0923020F082
:10367000F901E55AFB4F80839F5F9093990208956B
:10368000823081F481E08093980210929902109226
:10369000970280E4809342010895913039F71092A7
:1036A0004201EACF0895EF92FF920F931F93CF93B9
:1036B000DF934091420150E0F0E0E0E08F2F90E096
:1036C000841795070CF049C0DC01A25EBB4FAC919A
:1036D000B0E06E2F70E09B0123563B4F79019D01B6
:1036E00020523109207333278C01035E1B4FE80100
:1036F000B881B052C4E036952795CA95E1F7D4E079
:10370000BD9F200D1124E7012883EC01C15EDB4F32
:10371000088110E0EB01C256DB4F980120523109BD
:103720002C7333277901F594E794F594E79420E11D
:10373000A29FE00C1124E882DB01A156BB4FEC01F3
:10374000C05EDB4F888180528F7330E4039F800D11
:1037500011248C93ED5FFC5FB1CFE0931B040E94BA
:10376000F11A882309F4A5C0809197028111A1C0A4
:103770001092CB04809176088F7B80937608C0E00E
:1037800010E001E02C2F30E080911B0490E00197C5
:10379000281739070CF088C0F901E356FB4FD08198
:1037A000D33009F46CC028F4D13039F1D23099F01B
:1037B0007BC0D83009F476C008F476C08FE78D0F4F
:1037C000893008F071C0CF5FE12FF0E0EE5CFE4F72
:1037D000D0831F5FD7CF8091770883FD63C0E1E07E
:1037E000EC0FF0E0E356FB4F8081918190937F08CE
:1037F00080937E080E94571355C0E1E0EC0FF0E083
:10380000E356FB4FF080CE5F8091770883FDBACFFF
:1038100080919C02F0FE0AC0811113C00E944433C3
:10382000D0939C0280917608826009C0882349F079
:103830000E94F23310929C02809176088D7F8093D3
:10384000760880919B02F4FE0AC0811113C00E9489
:10385000A73600939B0280917608886009C0882370
:1038600049F00E941E3410929B0280917608877F57
:1038700080937608F1FE86CF0E94BB3683CF80917D
:10388000770883FD0DC0E1E0EC0FF0E0E356FB4F5D
:10389000808191819093A1088093A0080E94571382
:1038A000CD5F70CFCB5F6ECFE12FF0E0EE5CFE4FCF
:1038B0001082DF91CF911F910F91FF90EF900895AB
:1038C0007F928F929F92AF92BF92CF92DF92EF92B0
:1038D000FF920F931F93CF93DF93C2E3D1E020E0D9
:1038E00069E076E015E048E004E083E0F82E97E038
:1038F000E92E32E0D32ECC24C3945C2F505F399153
:10390000822F90E0393009F4A8C0C0F4343009F4B3
:10391000E9C040F4323009F474C008F0D0C031304E
:1039200061F129C0363009F407C108F4EEC0373020
:1039300009F480C0383009F4A6C01DC0353809F438
:10394000E4C070F4323809F45CC018F43138A9F0DE
:1039500012C0333809F4B3C0343809F4C3C00BC003
:10396000373809F467C008F4E7C0383809F48BC069
:10397000393809F472C033E011C1FC013196BE97A9
:1039800008F009C1B0907608B0FA772470F8B4FA5C
:10399000882480F890907B0895FABB27B0F991FABB
:1039A000332730F992FA992490F8AA24A394E0914D
:1039B0000009E63009F0A12CA0917708A3FBAA2703
:1039C000A0F9B2FABB24B0F8FC01E356FB4FC08269
:1039D000E1E0E20FF0E0E356FB4F808170FA80F9FE
:1039E00080FA81F990FA82F9A0FA83F9B0FA84F9A1
:1039F000B0FB85F9A0FB86F930FB87F980832E5F49
:103A0000CAC0FC013496BE9708F0C5C080907C08FF
:103A100090907D08A12CB12CFC01E356FB4FD08285
:103A2000E1E0E20FF0E0E356FB4F80829182A28258
:103A3000B38243C0FC013296BE9708F0ACC0FC01D3
:103A4000E356FB4FE082E1E0E20FF0E0E356FB4F8C
:103A500080918E0890918F0812C0FC013296BE971B
:103A600008F099C0FC01E356FB4F6083E1E0E20FF0
:103A7000F0E0E356FB4F8091A6089091A708918350
:103A800080832D5F88C0FC013496BE9708F083C008
:103A9000FC01E356FB4F4083E1E0E20FF0E0E35628
:103AA000FB4F8091800890918108A0918208B0918D
:103AB000830880839183A283B3832B5F6CC0FC0156
:103AC0003296BE9708F067C0FC01E356FB4FF082C8
:103AD000E1E0E20FF0E0E356FB4F80919E08909109
:103AE0009F08CDCFFC013296BE9708F054C0FC0170
:103AF000E356FB4F0083E1E0E20FF0E0E356FB4FBB
:103B00008091940890919508BACFFC013896BE97A1
:103B100008F041C0FC01E356FB4F1083A1E0A20F67
:103B2000B0E0A356BB4FECEBF8E0842F01900D9270
:103B30008A95E1F7275F2FC0FC013B96BE9758F5A9
:103B4000FC01E356FB4F708382E0820FE1E0E20F5D
:103B5000F0E0E356FB4F9091AE089083EFEAF8E077
:103B60009CE0920F3191A82FB0E0A356BB4F3C933D
:103B70008F5F8913F7CFE82FF0E0E356FB4F80917A
:103B8000B9088083EDE0E20FF0E0225FE356FB4FDF
:103B90008091BB0880835C13B2CEEDCE822F632F61
:103BA0000E943F3FC22FD0E011E0120F923029F067
:103BB000C356DB4F1882212FF1CF622F8DE994E09D
:103BC0000E94E21AC356DB4F8883E12FF0E0B0E099
:103BD000A0E04B2F50E04E175F07ECF5EA01C3560B
:103BE000DB4F98816A2F70E0EB01C453DB4F892FC4
:103BF00086958695805E8883EA01C256DB4F888170
:103C0000EB01C353DB4F182F12951F7000E1909FFB
:103C100090011124212B2F73205E2883EA01C156C5
:103C2000DB4F2881EB01C253DB4F34E0839FC0019F
:103C30001124922F9295969596959370892B8F7358
:103C4000805E8883EB01C153DB4F2F73205E288396
:103C5000AC5FBD5FBECFA0931C0460E082E00E9419
:103C6000C92060E081E20E94C92080911C0460E0CC
:103C7000805E0E94C920C0E080911C04C81750F4E7
:103C8000EC2FF0E0E453FB4F60E080810E94C920FC
:103C9000CF5FF2CF60E084E0DF91CF911F910F9171
:103CA000FF90EF90DF90CF90BF90AF909F908F905C
:103CB0007F900C94C92080919602882341F081E086
:103CC00080939A02109296020E94531B1AC0809110
:103CD000CB048B30B0F08091770883FD10C08091C9
:103CE000760886FD0CC080648093760887EE93E0AA
:103CF0009093BD088093BC080E94133402C01092B8
:103D0000CB048091770883FF07C01092CB04809189
:103D100076088F7B8093760880919A02882321F021
:103D200010929A020C94601C0895F8942091C80295
:103D30003091C9027894E62FF0E0EE0FFF1FEE0FEE
:103D4000FF1FE45FFA4F009761F0318320838D3BC2
:103D50002FE7920714F08CEB9FE701979383828300
:103D600010C082819381009771F040815181241BA2
:103D7000350B821793072CF41382128281E090E0B6
:103D8000089580E090E008954F925F926F927F9245
:103D90008F929F92AF92BF92CF92DF92EF92FF925B
:103DA0000F931F93CF93DF9300D000D0CDB7DEB732
:103DB000E982FA820B831C830E9463392B013C0148
:103DC00020E030E0A9010E94283B18166CF420E0A6
:103DD00030E040E85FE3F40160817181828193818A
:103DE0000E94D03987FD16C020E030E0A901C30150
:103DF000B2010E94D03987FF21C020E030E040E8C6
:103E00005FEBF40160817181828193810E94283B84
:103E10001816A4F4A3019201C601B5010E942D3B1E
:103E20009B01AC01F40160817181828193810E94C8
:103E30006439F4016083718382839383A3019201C7
:103E400069817A818B819C810E942D3BF4012081C4
:103E50003181428153810E9464396B017C0120E0F1
:103E600030E040E85FE30E94283B18168CF020E029
:103E700030E040E85FEBC701B6010E94D03987FF10
:103E80000DC0C12CD12C90E8E92E9FEBF92E06C075
:103E9000C12CD12C80E8E82E8FE3F82EC701B601A3
:103EA0000F900F900F900F90DF91CF911F910F9176
:103EB000FF90EF90DF90CF90BF90AF909F908F904A
:103EC0007F906F905F904F900895880F991F880F93
:103ED000991FFB01E80FF91F6591759185919491E8
:103EE00008956EEC0C948E1A08950C9444330C943F
:103EF000F233809176086AEC84FF02C081E001C051
:103F000080E00E948E1A2CB53DB580910009843165
:103F100019F46CEC81E011C08A3031F4C9018827B2
:103F200090746CEC892F09C0863029F48091C80206
:103F30006CEC817002C06CEC80E00C948E1A0E94D4
:103F4000791F8BEC0E945D1A2091A602892B49F003
:103F5000211110C081E08093A602809176088860CC
:103F600007C0222339F01092A60280917608877F3D
:103F70008093760882ED0E945D1A2091A502892B1C
:103F800049F0211110C081E08093A502809176084C
:103F9000826007C0222339F01092A5028091760832
:103FA0008D7F809376088CEC0E945D1A2091A4028C
:103FB000892B49F0211110C081E08093A4028091E7
:103FC0007608806807C0222339F01092A4028091FD
:103FD00076088F77809376088AEC0E945D1A20918C
:103FE000A302892B49F4211110C081E08093A30220
:103FF00080917708886007C0222339F01092A302CD
:1040000080917708877F809377088091770883FD78
:1040100019C081ED0E945D1A2091A202892B49F0FE
:10402000211110C081E08093A20280917608826005
:1040300007C0222339F01092A202809176088D7F6A
:10404000809376088091760887FF16C00E94BB3661
:104050008091A1028B3F18F48F5F8093A102809121
:10406000A1028A3F59F481E080931B068091760873
:104070008F778093760802C01092A1029091760803
:104080008091A00293FF08C081110CC08BE0809347
:10409000A0020E94A73606C0882321F01092A00239
:1040A0000E941E349091760880919F0291FF07C074
:1040B00081110BC081E080939F020C9444338823CC
:1040C00021F010929F020C94F233089580ED0E942B
:1040D0005D1A21E0892B09F420E0822F08958DECF0
:1040E0000E945D1A21E0892B09F420E0822F0895B7
:1040F0008EEC0E945D1A21E0892B09F420E0822FCA
:10410000089508958BB19CB18C71A1F48091A8029F
:10411000E82FF0E0E357FA4F90838F5F803419F077
:104120008093A80202C01092A8028091A7028F5F1C
:104130008093A70208951F920F920FB60F92112439
:104140000BB60F928F93EF93FF938091AA0288236F
:10415000A9F081508093AA02E091AC02F0E0E35B09
:10416000FA4F80818CB98091AC028F5F803419F056
:104170008093AC0204C01092AC0201C05698FF912B
:10418000EF918F910F900BBE0F900FBE0F901F906D
:104190001895F8942091AA02211102C05D9914C0CB
:1041A0009091AB02E92FF0E0E35BFA4F808381E06E
:1041B000890F803419F08093AB0202C01092AB02D9
:1041C0002F5F2093AA0202C08CB9569A7894089562
:1041D000F8948091A7028823A1F081508093A702D0
:1041E0009091A902E92FF0E0E357FA4F208130E0E7
:1041F0009F5F903419F09093A90205C01092A90214
:1042000002C02FEF3FEF7894C90108958091E8082C
:104210009091E908029731F480E00E94E82097FF2E
:104220000C945026089582E08BB988E98AB98EE013
:10423000809395001092900082E890E29093DE03C4
:104240008093DD0308958091E8089091E90820911A
:10425000AD0230E02817390771F08093AD02029764
:1042600011F40E9413218091E8089091E908892BAC
:1042700011F40C94303008951F93CF93DF93162FD1
:10428000EC018991882321F0612F0E94C920F9CF88
:10429000DF91CF911F9108958091760884FD34C0FD
:1042A0002091D7053091D8054AE0429FC001439F35
:1042B000900D112490937F0880937E088091DB05F8
:1042C0009091DC0590939708809396088091D5058E
:1042D0009091D6059093A1088093A00880914D06F7
:1042E000813021F48091FD058093BA088091D90531
:1042F0009091DA050F9741F48091F3059091F405C0
:104300009093870880938608089580917E08909105
:104310007F086AE070E00E944B3F7093D80560937D
:10432000D70580919608909197089093DC0580932B
:10433000DB058091A0089091A1089093D605809309
:10434000D50580914D06813039F48091BA0890E00E
:104350009093FE058093FD050895A6E7B8E0E5ED8E
:10436000F5E0808D918D5B969C938E935A97828D0C
:10437000938D5D969C938E935C9784899589D59651
:104380009C938E93D49782899389D3969C938E9392
:10439000D29786899789D7969C938E93D697808556
:1043A00091859D969C938E939C97828593859F96ED
:1043B0009C938E939E978485958593969C938E93DC
:1043C00092978685978595969C938E9394978089EE
:1043D000918997969C938E939697868D978D5196FB
:1043E0009C938E93509780A191A153969C938E930A
:1043F0005297848D958D1F969C938E931E9780A5C2
:104400008093BA0882A193A155969C938E9354975A
:1044100084A195A157969C938E93569782A593A5B8
:104420009093C5088093C40884A595A59093C70868
:104430008093C60886A597A59093CF088093CE0851
:1044400080A991A99093D1088093D00882A993A9BB
:104450009093DB088093DA0884A995A99093DD08EE
:104460008093DC0886A997A99093D3088093D208FB
:1044700080AD91AD9093DF088093DE0882AD93AD5F
:104480009093E1088093E00884AD95AD9093E308A4
:104490008093E20880911306909114069093E508AA
:1044A0008093E40880911506909116069093E70892
:1044B0008093E60880911706909118069093E9087A
:1044C0008093E8088091190690911A069093EB0862
:1044D0008093EA0886A197A12091780821FB3327D1
:1044E00030F930FB81F920FB80F9906412968C93AF
:1044F000129713969C930C944C2180E008950F938F
:104500001F93CF93DF931F92CDB7DEB789830E94AD
:1045100050168981813009F4B2C080910009883039
:1045200011F08F3F19F40E947B3145C087E494E07D
:104530000E94D21680910009811103C08DE394E09E
:104540000FC08A3019F489E294E00AC08B301CF065
:104550008FE194E005C08150893020F483E394E03A
:104560000E94D2168091B9081F928F9388E591E03E
:104570009F938F938BE296E09F938F930E940D41C0
:104580008BE296E00E94911680917B080F900F902D
:104590000F900F900F900F9082FF02C089E409C026
:1045A00081FF02C085E505C085FF02C08BE401C024
:1045B00080E50E940816809183088F93809182087D
:1045C0008F93809181088F93809180088F93809141
:1045D000A1088F938091A0088F9380919F088F935B
:1045E00080919E088F9380E691E09F938F930BE2DA
:1045F00016E01F930F930E940D41C8010E9491166F
:104600008091A7088F938091A6088F938091970837
:104610008F93809196088F93809195088F938091C6
:1046200094088F9382E791E09F938F931F930F934A
:104630000E940D41C8010E949116E0917C08F09102
:104640007D0880917E0890917F082AE030E0B901D2
:104650000E944B3F9F938F937F936F93CF01B9013C
:104660000E944B3F9F938F937F936F9385E891E0D8
:104670009F938F931F930F930E940D415BC0809176
:10468000AF081F928F938091BA081F928F938091E9
:10469000B9081F928F938FE991E09F938F930BE25C
:1046A00016E01F930F930E940D41C8010E949116BE
:1046B0008091B2081F928F938091B1081F928F93BF
:1046C0008091B0081F928F9385EB91E09F938F9319
:1046D0001F930F930E940D41C8010E949116809173
:1046E000B5081F928F938091B4081F928F93809189
:1046F000B3081F928F938BEC91E09F938F931F933E
:104700000F930E940D41C8010E9491168091B80834
:104710001F928F938091B7081F928F938091B60854
:104720001F928F9381EE91E09F938F931F930F932E
:104730000E940D410FB6F894DEBF0FBECDBFC80179
:104740000F90DF91CF911F910F910C94911623E060
:1047500039E044E050E280E090E0F901E80FF91F11
:104760005083019680359105C1F74150205B3F4F42
:104770004111F1CF83E28093030908950895A3E0E6
:10478000B9E020E5CD01805B9F4FFC01322F019005
:104790000D923A95E1F7DC0189E0A33FB80791F764
:1047A0002091AF0280E5289F9001112480E090E0E5
:1047B00040E2FC01E20FF31FED5FF64F40830196EC
:1047C00080359105B1F70895CF93DF93FC01849173
:1047D000EF019091B002903540F42196882329F0A2
:1047E0000E945026FE018491F4CFDF91CF9108956D
:1047F000EF92FF920F931F93CF93DF93CDB7DEB766
:10480000C155D1090FB6F894DEBF0FBECDBF845697
:1048100091097C0181E3E816F10408F074C081E09D
:104820008093AE0283E0EE0CFF1C8A95E1F7F7015E
:10483000E45BFB4F05911491F701ED5AFB4F249176
:1048400080E262962FAF62970E945026C701825B7A
:104850009B4F0E94E4238DE30E945026FE01319677
:104860007F0162962FAD62972230A9F018F42130B3
:1048700051F004C02330D9F0243081F1F801818156
:104880008F9380812EC0F80181818F9380818F93D7
:104890008AEF91E029C0F80183818F9382818F9301
:1048A00081818F9380818F938DEF91E00BC0F80110
:1048B00083818F9382818F9381818F9380818F9366
:1048C00081E092E09F938F93FF92EF920E940D41BF
:1048D0000FB6F894DEBF0FBECDBF12C0F8018081C5
:1048E0001F928F9387EF91E09F938F93FF92EF92A8
:1048F0000E940D410F900F900F900F900F900F900E
:10490000C7010E94C226CF5ADF4F0FB6F894DEBF10
:104910000FBECDBFDF91CF911F910F91FF90EF9010
:1049200008952F923F924F925F926F927F928F9253
:104930009F92AF92BF92CF92DF92EF92FF920F932E
:104940001F93CF93DF93CDB7DEB7CB55D1090FB609
:10495000F894DEBF0FBECDBF7E0127E5E20EF11C4D
:1049600080E69AEEF701918380835E01F1E5AF0E58
:10497000B11CF50110821182128213826E01F5E5DD
:10498000CF0ED11CF60111821082DE01A65ABF4F54
:104990001C921E01F9E52F0E311CF10110821092BC
:1049A000AE02E091AF022E2F30E080E5E89FF001EB
:1049B0001124ED5FF64F80818F3681F481818E3630
:1049C00029F4809176088860826005C08636A1F45B
:1049D000809176088D7F8093760848C1823761F494
:1049E0008181853619F40E94BB3640C1863721F497
:1049F000809176088068EFCFDF92CF923F922F921E
:104A0000BF92AF92BF93AF93FF92EF9287E092E095
:104A10009F938F9340E5429FC001439F900D1124C7
:104A20008D5F964F9F938F930E943D41F701408188
:104A300051810FB6F894DEBF0FBECDBF4332510592
:104A400008F00AC12BE1922E949E9001959E300DA4
:104A50001124F901EC52FA4F05911491F901E15238
:104A6000FA4F2491833091050CF491C0223069F003
:104A70002330D1F00115110509F46DC0F5018081D5
:104A80009181F8019183808366C00115110509F4B5
:104A900062C0F50180819181A281B381F801808398
:104AA0009183A283B38357C0F50140805180628017
:104AB0007380C301B2010E94783A4B015C01F60198
:104AC000C080D180B6010D2C000C880B990B0E9480
:104AD000783AF0E1CF16F7E2DF062CF020E030E57F
:104AE00043EC57E420C028EEC21623E0D2062CF097
:104AF00020E030E44CE156E416C034E6C316D1049D
:104B00002CF020E030E04AE754E40DC0EAE0CE1695
:104B1000D1042CF020E030E048EC52E404C020E066
:104B200030E040E251E40E94D5392EE2F1012083C9
:104B30009B01AC01C501B40177FC03C00E9464393C
:104B400002C00E9463390115110529F0F801608344
:104B50007183828393838FE780934C0611E01093D7
:104B6000CD0580E20E945026F701208131814BE182
:104B7000429FC001439F900D112486529A4F0E947C
:104B8000E4238AE20E9450261093AE026FC002977F
:104B900009F06CC081E08093AE0280E26C962FAF8A
:104BA0006C970E945026F70140815181949EC0016C
:104BB000959E900D112486529A4F0E94E4238DE316
:104BC0000E945026CE0101967C016C962FAD6C9709
:104BD000F8012230E9F0233031F18181213031F0C8
:104BE0008F9380818F9387EF91E005C08F938081B1
:104BF0008F938AEF91E09F938F93FF92EF920E94A1
:104C00000D410F900F900F900F900F900F9020C0BC
:104C100083818F9382818F9381818F9380818F9302
:104C20008DEF91E00AC083818F9382818F93818180
:104C30008F9380818F9381E092E09F938F93FF9277
:104C4000EF920E940D410FB6F894DEBF0FBECDBFAC
:104C5000C7010E94C2260AC0CA010E94F82380919F
:104C6000AE02811103C08FE30E945026C55ADF4F68
:104C70000FB6F894DEBF0FBECDBFDF91CF911F916D
:104C80000F91FF90EF90DF90CF90BF90AF909F90EB
:104C90008F907F906F905F904F903F902F900895EE
:104CA0008A3011F08D3079F58091530681508E3F16
:104CB00010F00E9491241092B0028091AF028330D4
:104CC00020F48F5F8093AF0202C00E94BF23E09167
:104CD000AF0220E5E29FF0011124ED5FF64F83E281
:104CE00080838091E8089091E908029709F049C013
:104CF00060E070E08DE090E00E94C92060E070E02C
:104D00008AE090E018C08B31E9F41092B002E09193
:104D1000AF0280E5E89FF0011124ED5FF64F83E2DA
:104D200080838091E8089091E908029751F560E04E
:104D300070E08DE090E00E94C92060E070E083E2C6
:104D400090E01DC09091B0029035D8F4E091AF0290
:104D500021E0290F2093B00220E5E29FF001112409
:104D6000E90FF11DED5FF64F80832091E808309147
:104D7000E9082230310529F460E070E090E00C94FD
:104D8000C9200895CF93DF93EC018091B002803564
:104D900030F48991882319F00E945026F6CFDF91D4
:104DA000CF9108958235E1F028F4803569F081359E
:104DB00089F004C0833511F1853561F19091760851
:104DC0009F779093760808950E94BB36809176086D
:104DD000806823C00E941E3480917608857F08C0B9
:104DE0000E94F2330E94A7368091760888608D7FFA
:104DF0008F77809376081092250611C00E94443365
:104E00008091760883FF06C091E09093250682602A
:104E100080937608809176088F778093760880E07B
:104E2000089508954F925F927F928F929F92AF92D2
:104E3000BF92CF92DF92EF92FF920F931F93CF9387
:104E4000DF931F92CDB7DEB7182F84E090E00E9469
:104E50000D45653F71418D439B4119F4772473944F
:104E60001111712C06ED15E0E12CF12C83E1A82E37
:104E700082E0B82E9BE2892E96E0992EF8013297B7
:104E8000459054904114510409F460C0F8013996DA
:104E90002491C2018B5C95406C01FF92EF921F92AE
:104EA0007F92BF92AF929F928F9229830E940D4171
:104EB0008BE296E00E9491160FB6F894DEBF0FBE0B
:104EC000CDBF29812230B8F4772039F0C6010E9485
:104ED0001345F2019183808339C0F8016591759182
:104EE000859194910E94473AF20171836083C601D3
:104EF0000E9436452BC0772049F0C6010E940D451F
:104F0000F201608371838283938320C0F801233090
:104F100051F485919591A591B491F201808391838B
:104F2000A283B3830BC065917591859194910E9482
:104F3000473AF2016083718382839383F201408157
:104F4000518162817381C6010E942A45FFEFEF1AE9
:104F5000FF0A055E1F4F23E2E216F10409F08ECF2F
:104F600045EF51E16DE37BE184E090E00E942A454A
:104F700080914C068F6780934C060F90DF91CF9104
:104F80001F910F91FF90EF90DF90CF90BF90AF9067
:104F90009F908F907F905F904F9008956F927F9237
:104FA0009F92AF92BF92CF92DF92EF92FF920F93B8
:104FB0001F93CF93DF9304ED15E0C0E0D0E088E2CB
:104FC000C82E82E0D82E9BE2A92E96E0B92EF801D9
:104FD000E590F490E114F10459F1F8013B969490B6
:104FE000C7018B5C95403C01DF93CF93DF92CF925A
:104FF000BF92AF920E940D418BE296E00E94911603
:105000000F900F900F900F900F900F90F1E0F91507
:1050100038F0F70160817181C3010E94364508C0F4
:10502000F7014081518162817381C3010E942A4549
:105030002196055E1F4FC332D10549F610921E0618
:10504000DF91CF911F910F91FF90EF90DF90CF9064
:10505000BF90AF909F907F906F900895E0914E0623
:105060009091470180914B06E91305C0909146014C
:10507000891709F488C010921E0646E0E402F00188
:105080001124E80FF11D87FDFA95EC5AF94F808144
:105090008093CE05833240F010924E0610924B065C
:1050A000809154068093CE058091CE05282F30E064
:1050B0004BE1849FC0011124FC01EC52FA4F459151
:1050C00054915093280640932706FC01E152FA4F71
:1050D000E491E0931D06FC01EC51FA4F4591559186
:1050E0006591749140934F0650935006609351061A
:1050F00070935206FC01E052FA4F4591559165912B
:1051000074914093CF055093D0056093D10570936F
:10511000D205FC01E551FA4F85919591A591B49185
:1051200080931F0690932006A0932106B093220639
:1051300040914E0650914B06411109C0511107C0D4
:10514000109224061092260610924D0618C06BE1AC
:10515000629FC001639F900D1124FC01E851FA4F3A
:10516000E491E0932406FC01E751FA4FE491E093C7
:105170002606FC01E651FA4FE491E0934D06509368
:105180004601409347010895AF92BF92CF92DF92BC
:10519000EF92FF920F931F93CF93DF93182F0E94EC
:1051A0002E2880911D06C0912706D09128068230B6
:1051B00089F1833009F461C088819981810F911D43
:1051C00017FD9A954091CF055091D0056091D1057A
:1051D0007091D205092E000CAA0BBB0B8417950702
:1051E000A607B70714F4DB01CA0140914F0650919E
:1051F00050066091510670915206481759076A0788
:105200007B0714F4DB01CA01209709F495C0998348
:10521000888392C0812F110F990BAA0BBB0B488179
:1052200059816A817B810091CF051091D005209131
:10523000D1053091D205840F951FA61FB71F801787
:105240009107A207B30714F4D901C80140914F0692
:1052500050915006609151067091520648175907B7
:105260006A077B0714F4DB01CA01209709F464C0C4
:1052700088839983AA83BB835FC0C0901F06D090A8
:105280002006E0902106F090220620E030E0A901FF
:10529000C701B6010E94D039412F110F550B660B83
:1052A000770B882349F0CB01BA010E94783AA70115
:1052B00096010E942D3B04C0CB01BA010E94783AAE
:1052C000288139814A815B810E9464397B018C018C
:1052D0006091CF057091D0058091D1059091D20554
:1052E0000E94783A5B016C019B01AC01B701C801D7
:1052F0000E94D03987FF02C07501860160914F0678
:105300007091500680915106909152060E94783A11
:105310005B016C019B01AC01B701C8010E94283BF5
:10532000181614F475018601209731F0C701D801D1
:1053300088839983AA83BB8380914C068F63809373
:105340004C06DF91CF911F910F91FF90EF90DF906E
:10535000CF90BF90AF900895CF93DF9310921E0629
:105360000E942E2880911D06C0912706D091280604
:105370008230B1F0833049F1209709F438C0E091D0
:10538000CE058BE1E89FF0011124EA52FA4F6591B6
:105390007591859194910E94473A7983688327C0DB
:1053A000209729F1E091CE058BE1E89FF0011124CF
:1053B000EA52FA4F65917591859194910E94473A0E
:1053C000688379838A839B8312C0209781F0E09160
:1053D000CE058BE1E89FF0011124EA52FA4F859146
:1053E0009591A591B49188839983AA83BB83809179
:1053F0004C068F6380934C06DF91CF91089581E036
:105400008093CD0510924B0610924E0610921E0608
:1054100008958F929F92AF92BF92CF92DF92EF92B8
:10542000FF920F931F93CF93DF938E3221F481E08D
:1054300080931E06A0C1F82E0E942E2810911D06F2
:10544000D0901E06123009F444C0133009F49DC0F8
:105450008F2D90E0D7FE0EC0E0912706F091280630
:10546000208131814AE0429FB001439F700D112499
:10547000860F971FC097092E000CAA0BBB0B4091FB
:10548000CF055091D0056091D1057091D205841758
:105490009507A607B70714F4DB01CA01C0904F06B1
:1054A000D0905006E0905106F0905206C816D906EA
:1054B000EA06FB0624F40E94FF29D701C601E09109
:1054C0002706F0912806309709F44CC09183808319
:1054D00049C0D7FC08C08F2D90E0C097092E000C62
:1054E000AA0BBB0B15C0E0912706F091280620817E
:1054F000318142815381AAE0B0E00E94D33FDC01B8
:10550000CB018F0D911DA11DB11DC097A109B1093E
:105510004091CF055091D0056091D1057091D20591
:1055200084179507A607B70714F4DB01CA01C090DA
:105530004F06D0905006E0905106F0905206C816E3
:10554000D906EA06FB0624F40E94FF29D701C6010A
:10555000E0912706F0912806309721F0808391830F
:10556000A283B38380914F0690915006A09151067B
:10557000B09152060A97A105B1050CF4F7C08091CD
:105580001E06815080931E06F1C082E0D81609F4F1
:105590006DC08D154CF06F2D70E0DD20D9F1E1E08C
:1055A000DE1609F444C00CC00091270610912806AD
:1055B000F3E0DF1609F47AC084E0D81609F492C04B
:1055C000E0912706F091280620E030E040E251E427
:1055D00060817181828193810E942D3B4B015C012E
:1055E0006F2D70E080E090E00E94783A9B01AC0162
:1055F000C501B4010E94643920E030E040E452E487
:105600000E9463397B01D82FC92F2FEF2D0D2093D6
:105610001E066DC060537109072E000C880B990B94
:105620000E94783A7B01D82FC92F8FEF1CC0C09100
:105630002706D091280660537109072E000C880BAD
:10564000990B0E94783A2DEC3CEC4CEC5DE30E9407
:105650002D3B288139814A815B810E9464397B011D
:10566000D82FC92F82E080931E0641C0C091270623
:10567000D09128066F2D70E060537109072E000C41
:10568000880B990B0E94783A2AE037ED43E25CE3FD
:105690000E942D3B288139814A815B810E946439B7
:1056A0007B01D82FC92F10931E0621C06F2D70E0EB
:1056B00060537109072E000C880B990B0E94783AF1
:1056C0002FE632E143E85AE30E942D3BF8012081A6
:1056D0003181428153810E9464397B01D82FC92FC7
:1056E00084E0C1CFF801E080F180D281C381609174
:1056F000CF057091D0058091D1059091D2050E947F
:10570000783A6B018C019B01AC01B7018D2F9C2F66
:105710000E94D03987FF03C07601D02FC12F60913E
:105720004F067091500680915106909152060E944A
:10573000783A6B018C019B01AC01B7018D2F9C2F36
:105740000E94283B18162CF40E94FF297601D02FC6
:10575000C12FE0912706F0912806309739F0C70154
:10576000AD2FBC2F80839183A283B38380914C069D
:105770008F6380934C06DF91CF911F910F91FF9023
:10578000EF90DF90CF90BF90AF909F908F90089553
:105790000F931F93CF93DF93CDB7DEB7C054D140A3
:1057A0000FB6F894DEBF0FBECDBF20E030E08FEF24
:1057B000F901EC5AF94F8083818382838383848348
:1057C00085832A5F3F4F2036310591F79E012F5F79
:1057D0003F4FB90140E15FEF80E090E0FB01E80F4F
:1057E000F91F5083019684319105C1F741506C5ED9
:1057F0007F4F4111F1CF48EE55E060E014E1FA012E
:1058000074913296A49131979491AA0FAA0FA90F7F
:10581000711102C069F002C0743150F4A03140F43B
:105820001A9FD0011124A70FB11DA20FB31F6C93B3
:105830006F5F455E5F4F633211F78091D9058983B1
:1058400060E180E090E0B6E040E050E070E0B99FB9
:1058500080011124F901E40FF51FA081AF3F61F031
:10586000903148F4863038F4F801E80FF11DEC5A15
:10587000F94FA0838F5F7F5F4F5F5F4F44315105CA
:1058800049F7615039F0772311F09F5F80E02C5E7B
:105890003F4FDACFC05CDE4F0FB6F894DEBF0FBECD
:1058A000CDBFDF91CF911F910F9108950E945616A1
:1058B0000E94A72380E00E94122710924E061092A9
:1058C0004B0610921E068BEF80931C061092290641
:1058D0001092D4050E94C82B0E942E288FEF80932F
:1058E0004C0608951F93CF93DF938091D3058111C8
:1058F00002C00E94562C80912306882339F08091A3
:105900001C068B3F18F48F5F80931C068091CD0599
:10591000811104C080911C068A3F99F40E94CE2711
:105920001092CD058FEF8093470110924E06109292
:105930004B0610921E068091D905809354060E9452
:105940002E2880911B068823D9F081E00E9412271F
:105950000E94C82B10924E0610924B0610921E0603
:105960008BEF80931C06109229061092D4058FEFBE
:1059700080934701809346010E942E2810921B06B7
:1059800080910904882309F417C18FEF80934301A4
:105990001092090410921C060E94FF180E94D22641
:1059A000882309F409C1909153069111CEC0109239
:1059B00029061092D405813409F497C0B0F48D32D1
:1059C00059F160F48B3109F4B1C08B3219F18A308E
:1059D00009F0B8C081E08093CD05B4C08E3201F1EA
:1059E00090ED980F9A30E0F0ADC08F3609F4A1C069
:1059F00038F48334C1F070F1843409F45DC0A2C07E
:105A0000813709F49CC008F498C0893709F09AC01E
:105A10008FEF96C081E001C08FEF0E94C42892C032
:105A20000E94092A8FC080914B0686300CF08AC0F4
:105A3000E0914E0696E0E902F0011124EC5AF94F8C
:105A4000E80FF11D87FDFA959181933208F07AC035
:105A50008F5F48C080914E0680310CF073C0282FB4
:105A6000082E000C330B2F5F3F4F90914B0646E002
:105A7000429FF001439FF00D1124E90FF11D97FDA6
:105A8000FA95EC5AF94F9081933210F010924B0630
:105A900090914B0646E0429FF001439FF00D112488
:105AA000E90FF11D97FDFA95EC5AF94F9081933269
:105AB00008F048C08F5F37C080914B0618160CF075
:105AC00041C0E0914E0696E0E902F0011124EC5A43
:105AD000F94FE80FF11D87FDFA95319790819332C8
